{
  "_format": "hh-sol-artifact-1",
  "contractName": "Food",
  "sourceName": "contracts/Food.sol",
  "abi": [
    {
      "inputs": [],
      "stateMutability": "nonpayable",
      "type": "constructor"
    },
    {
      "inputs": [
        {
          "internalType": "string",
          "name": "url",
          "type": "string"
        },
        {
          "internalType": "string",
          "name": "name",
          "type": "string"
        },
        {
          "internalType": "string",
          "name": "originCountry",
          "type": "string"
        }
      ],
      "name": "addFoodItem",
      "outputs": [],
      "stateMutability": "nonpayable",
      "type": "function"
    },
    {
      "inputs": [
        {
          "internalType": "uint256",
          "name": "",
          "type": "uint256"
        }
      ],
      "name": "foodItems",
      "outputs": [
        {
          "internalType": "address",
          "name": "owner",
          "type": "address"
        },
        {
          "internalType": "string",
          "name": "url",
          "type": "string"
        },
        {
          "internalType": "string",
          "name": "name",
          "type": "string"
        },
        {
          "internalType": "string",
          "name": "originCountry",
          "type": "string"
        }
      ],
      "stateMutability": "view",
      "type": "function"
    },
    {
      "inputs": [],
      "name": "getFoodItems",
      "outputs": [
        {
          "components": [
            {
              "internalType": "address",
              "name": "owner",
              "type": "address"
            },
            {
              "internalType": "string",
              "name": "url",
              "type": "string"
            },
            {
              "internalType": "string",
              "name": "name",
              "type": "string"
            },
            {
              "internalType": "string",
              "name": "originCountry",
              "type": "string"
            }
          ],
          "internalType": "struct Food.FoodItem[]",
          "name": "",
          "type": "tuple[]"
        }
      ],
      "stateMutability": "view",
      "type": "function"
    },
    {
      "inputs": [],
      "name": "getFoodItemsByOwner",
      "outputs": [
        {
          "components": [
            {
              "internalType": "address",
              "name": "owner",
              "type": "address"
            },
            {
              "internalType": "string",
              "name": "url",
              "type": "string"
            },
            {
              "internalType": "string",
              "name": "name",
              "type": "string"
            },
            {
              "internalType": "string",
              "name": "originCountry",
              "type": "string"
            }
          ],
          "internalType": "struct Food.FoodItem[]",
          "name": "",
          "type": "tuple[]"
        }
      ],
      "stateMutability": "view",
      "type": "function"
    },
    {
      "inputs": [],
      "name": "owner",
      "outputs": [
        {
          "internalType": "address",
          "name": "",
          "type": "address"
        }
      ],
      "stateMutability": "view",
      "type": "function"
    }
  ],
  "bytecode": "0x608060405234801561001057600080fd5b5061125d806100206000396000f3fe608060405234801561001057600080fd5b50600436106100575760003560e01c80630ac52e651461005c5780632f5bb01a1461008f578063734e450d146100ad5780638ce4c1ea146100cb5780638da5cb5b146100e7575b600080fd5b61007660048036038101906100719190610bc3565b610105565b6040516100869493929190610cca565b60405180910390f35b6100976102fd565b6040516100a49190610eb0565b60405180910390f35b6100b5610702565b6040516100c29190610eb0565b60405180910390f35b6100e560048036038101906100e09190611007565b61096d565b005b6100ef610a74565b6040516100fc91906110ae565b60405180910390f35b6001818154811061011557600080fd5b90600052602060002090600402016000915090508060000160009054906101000a900473ffffffffffffffffffffffffffffffffffffffff169080600101805461015e906110f8565b80601f016020809104026020016040519081016040528092919081815260200182805461018a906110f8565b80156101d75780601f106101ac576101008083540402835291602001916101d7565b820191906000526020600020905b8154815290600101906020018083116101ba57829003601f168201915b5050505050908060020180546101ec906110f8565b80601f0160208091040260200160405190810160405280929190818152602001828054610218906110f8565b80156102655780601f1061023a57610100808354040283529160200191610265565b820191906000526020600020905b81548152906001019060200180831161024857829003601f168201915b50505050509080600301805461027a906110f8565b80601f01602080910402602001604051908101604052809291908181526020018280546102a6906110f8565b80156102f35780601f106102c8576101008083540402835291602001916102f3565b820191906000526020600020905b8154815290600101906020018083116102d657829003601f168201915b5050505050905084565b60606000805b6001805490508110156103ac573373ffffffffffffffffffffffffffffffffffffffff166001828154811061033b5761033a61112a565b5b906000526020600020906004020160000160009054906101000a900473ffffffffffffffffffffffffffffffffffffffff1673ffffffffffffffffffffffffffffffffffffffff161415610399576001826103969190611188565b91505b80806103a4906111de565b915050610303565b5060008167ffffffffffffffff8111156103c9576103c8610edc565b5b60405190808252806020026020018201604052801561040257816020015b6103ef610a98565b8152602001906001900390816103e75790505b50905060005b6001805490508110156106f9573373ffffffffffffffffffffffffffffffffffffffff16600182815481106104405761043f61112a565b5b906000526020600020906004020160000160009054906101000a900473ffffffffffffffffffffffffffffffffffffffff1673ffffffffffffffffffffffffffffffffffffffff1614156106e657600181815481106104a2576104a161112a565b5b90600052602060002090600402016040518060800160405290816000820160009054906101000a900473ffffffffffffffffffffffffffffffffffffffff1673ffffffffffffffffffffffffffffffffffffffff1673ffffffffffffffffffffffffffffffffffffffff168152602001600182018054610521906110f8565b80601f016020809104026020016040519081016040528092919081815260200182805461054d906110f8565b801561059a5780601f1061056f5761010080835404028352916020019161059a565b820191906000526020600020905b81548152906001019060200180831161057d57829003601f168201915b505050505081526020016002820180546105b3906110f8565b80601f01602080910402602001604051908101604052809291908181526020018280546105df906110f8565b801561062c5780601f106106015761010080835404028352916020019161062c565b820191906000526020600020905b81548152906001019060200180831161060f57829003601f168201915b50505050508152602001600382018054610645906110f8565b80601f0160208091040260200160405190810160405280929190818152602001828054610671906110f8565b80156106be5780601f10610693576101008083540402835291602001916106be565b820191906000526020600020905b8154815290600101906020018083116106a157829003601f168201915b5050505050815250508282815181106106da576106d961112a565b5b60200260200101819052505b80806106f1906111de565b915050610408565b50809250505090565b60606001805480602002602001604051908101604052809291908181526020016000905b8282101561096457838290600052602060002090600402016040518060800160405290816000820160009054906101000a900473ffffffffffffffffffffffffffffffffffffffff1673ffffffffffffffffffffffffffffffffffffffff1673ffffffffffffffffffffffffffffffffffffffff1681526020016001820180546107af906110f8565b80601f01602080910402602001604051908101604052809291908181526020018280546107db906110f8565b80156108285780601f106107fd57610100808354040283529160200191610828565b820191906000526020600020905b81548152906001019060200180831161080b57829003601f168201915b50505050508152602001600282018054610841906110f8565b80601f016020809104026020016040519081016040528092919081815260200182805461086d906110f8565b80156108ba5780601f1061088f576101008083540402835291602001916108ba565b820191906000526020600020905b81548152906001019060200180831161089d57829003601f168201915b505050505081526020016003820180546108d3906110f8565b80601f01602080910402602001604051908101604052809291908181526020018280546108ff906110f8565b801561094c5780601f106109215761010080835404028352916020019161094c565b820191906000526020600020905b81548152906001019060200180831161092f57829003601f168201915b50505050508152505081526020019060010190610726565b50505050905090565b600160405180608001604052803373ffffffffffffffffffffffffffffffffffffffff16815260200184815260200185815260200183815250908060018154018082558091505060019003906000526020600020906004020160009091909190915060008201518160000160006101000a81548173ffffffffffffffffffffffffffffffffffffffff021916908373ffffffffffffffffffffffffffffffffffffffff1602179055506020820151816001019080519060200190610a32929190610ad6565b506040820151816002019080519060200190610a4f929190610ad6565b506060820151816003019080519060200190610a6c929190610ad6565b505050505050565b60008054906101000a900473ffffffffffffffffffffffffffffffffffffffff1681565b6040518060800160405280600073ffffffffffffffffffffffffffffffffffffffff1681526020016060815260200160608152602001606081525090565b828054610ae2906110f8565b90600052602060002090601f016020900481019282610b045760008555610b4b565b82601f10610b1d57805160ff1916838001178555610b4b565b82800160010185558215610b4b579182015b82811115610b4a578251825591602001919060010190610b2f565b5b509050610b589190610b5c565b5090565b5b80821115610b75576000816000905550600101610b5d565b5090565b6000604051905090565b600080fd5b600080fd5b6000819050919050565b610ba081610b8d565b8114610bab57600080fd5b50565b600081359050610bbd81610b97565b92915050565b600060208284031215610bd957610bd8610b83565b5b6000610be784828501610bae565b91505092915050565b600073ffffffffffffffffffffffffffffffffffffffff82169050919050565b6000610c1b82610bf0565b9050919050565b610c2b81610c10565b82525050565b600081519050919050565b600082825260208201905092915050565b60005b83811015610c6b578082015181840152602081019050610c50565b83811115610c7a576000848401525b50505050565b6000601f19601f8301169050919050565b6000610c9c82610c31565b610ca68185610c3c565b9350610cb6818560208601610c4d565b610cbf81610c80565b840191505092915050565b6000608082019050610cdf6000830187610c22565b8181036020830152610cf18186610c91565b90508181036040830152610d058185610c91565b90508181036060830152610d198184610c91565b905095945050505050565b600081519050919050565b600082825260208201905092915050565b6000819050602082019050919050565b610d5981610c10565b82525050565b600082825260208201905092915050565b6000610d7b82610c31565b610d858185610d5f565b9350610d95818560208601610c4d565b610d9e81610c80565b840191505092915050565b6000608083016000830151610dc16000860182610d50565b5060208301518482036020860152610dd98282610d70565b91505060408301518482036040860152610df38282610d70565b91505060608301518482036060860152610e0d8282610d70565b9150508091505092915050565b6000610e268383610da9565b905092915050565b6000602082019050919050565b6000610e4682610d24565b610e508185610d2f565b935083602082028501610e6285610d40565b8060005b85811015610e9e5784840389528151610e7f8582610e1a565b9450610e8a83610e2e565b925060208a01995050600181019050610e66565b50829750879550505050505092915050565b60006020820190508181036000830152610eca8184610e3b565b905092915050565b600080fd5b600080fd5b7f4e487b7100000000000000000000000000000000000000000000000000000000600052604160045260246000fd5b610f1482610c80565b810181811067ffffffffffffffff82111715610f3357610f32610edc565b5b80604052505050565b6000610f46610b79565b9050610f528282610f0b565b919050565b600067ffffffffffffffff821115610f7257610f71610edc565b5b610f7b82610c80565b9050602081019050919050565b82818337600083830152505050565b6000610faa610fa584610f57565b610f3c565b905082815260208101848484011115610fc657610fc5610ed7565b5b610fd1848285610f88565b509392505050565b600082601f830112610fee57610fed610ed2565b5b8135610ffe848260208601610f97565b91505092915050565b6000806000606084860312156110205761101f610b83565b5b600084013567ffffffffffffffff81111561103e5761103d610b88565b5b61104a86828701610fd9565b935050602084013567ffffffffffffffff81111561106b5761106a610b88565b5b61107786828701610fd9565b925050604084013567ffffffffffffffff81111561109857611097610b88565b5b6110a486828701610fd9565b9150509250925092565b60006020820190506110c36000830184610c22565b92915050565b7f4e487b7100000000000000000000000000000000000000000000000000000000600052602260045260246000fd5b6000600282049050600182168061111057607f821691505b60208210811415611124576111236110c9565b5b50919050565b7f4e487b7100000000000000000000000000000000000000000000000000000000600052603260045260246000fd5b7f4e487b7100000000000000000000000000000000000000000000000000000000600052601160045260246000fd5b600061119382610b8d565b915061119e83610b8d565b9250827fffffffffffffffffffffffffffffffffffffffffffffffffffffffffffffffff038211156111d3576111d2611159565b5b828201905092915050565b60006111e982610b8d565b91507fffffffffffffffffffffffffffffffffffffffffffffffffffffffffffffffff82141561121c5761121b611159565b5b60018201905091905056fea26469706673582212203b57fcc138b20cf35cff14d2e695119fe903bb20e76778f424182400e063448064736f6c63430008090033",
  "linkReferences": {},
  "deployedLinkReferences": {}
}